:100000001BC033C032C031C030C02FC02EC02DC085
:100010002CC02BC02AC029C028C04DC026C025C076
:1000200024C023C022C021C020C0A3C0B4C0BDC012
:10003000D0C000C11BC123C111241FBECFEDCDBF55
:1000400010E0A0E6B0E0EEE5F6E002C005900D920B
:10005000AA3AB107D9F720E0AAEAB0E001C01D92A0
:10006000A43CB207E1F754D2F8C2CACF089581E0A8
:1000700081BB82BB8093C20088E087BB87B384606A
:1000800087BB88B3826088BB88B3816088BB82B33A
:10009000806482BB81B3806281BB87B3806187BB90
:1000A000089582E080BF83E083BF8EE386BF81E056
:1000B00089BF88BF08951F920F920FB60F92112427
:1000C0008F939F93AF93BF938091BE009091BF0099
:1000D000A091C000B091C1000196A11DB11D8093F7
:1000E000BE009093BF00A093C000B093C100BF9129
:1000F000AF919F918F910F900FBE0F901F90189509
:10010000CF92DF92EF92FF92CF93DF93DC0181E0F9
:1001100090E00C9002C0880F991F0A94E2F71196A4
:10012000ED91FC911297208130E082239323189661
:10013000EC911897EE2391F0C090BE00D090BF00D4
:10014000E090C000F090C10014964D915D916D91CA
:100150007C911797C41AD50AE60AF70A4E2F50E089
:100160004730510508F0B1C0ED01FA01EB5EFF4FD9
:100170000994892B09F0A9C081E088878091BE008D
:100180009091BF00A091C000B091C1008C839D836D
:10019000AE83BF839AC08FE0C816D104E104F10496
:1001A00008F493C082E0888790C0892B11F01886EC
:1001B0008CC083E7C816D104E104F10408F485C0BB
:1001C00083E088878B81811180C0ED85FE8509954C
:1001D0007CC0892BC9F085E0888783E08B8B8C817C
:1001E0009D81AE81BF818C8B9D8BAE8BBF8B8091AF
:1001F000BE009091BF00A091C000B091C1008C835F
:100200009D83AE83BF8361C08B81823009F05DC066
:1002100089859A85AB85BC85C816D906EA06FB0692
:1002200008F453C084E0888783E08B8BEF85F889DE
:1002300009954BC0892B09F448C085E0888784E084
:100240008B8B8C819D81AE81BF818C8B9D8BAE8B86
:10025000BF8B8091BE009091BF00A091C000B09173
:10026000C1008C839D83AE83BF832FC08FE0C816EF
:10027000D104E104F10448F186E0888726C0892B87
:1002800059F48C899D89AE89BF898C839D83AE8307
:10029000BF838B89888719C083E7C816D104E1041E
:1002A000F10498F018868B81823031F48B89833089
:1002B00019F4ED85FE8509958B81823031F48B89A7
:1002C000843019F4E989FA890995DF91CF91FF907B
:1002D000EF90DF90CF90089581E08093B10082B3DA
:1002E000806282BB88B38F7E88BB88B3846088BB02
:1002F000089582E08093B10088B3806188BB82B3A7
:100300008F7D82BB08951092B10082B38F7D82BB36
:1003100088B38F7E88BB88B38B7F88BB089588B3F2
:10032000886088BB81E08093B000089588B3877FA0
:1003300088BB1092B0000895CF93C82F8091C3005E
:10034000823009F468C028F4882351F0813079F0B4
:10035000C1C0833009F48EC0853009F4B6C0BAC07C
:10036000C111B8C081E08093C300B6DFB3C0C11132
:1003700005C01092C300C7DFD9DFACC0C130D1F4D3
:1003800082E08093C300B5DF8091BE009091BF00F2
:10039000A091C000B091C10088519C4FAF4FBF4F9A
:1003A0008093B6009093B700A093B800B093B900C3
:1003B000B6DF90C0C23009F08DC083E08093C300E7
:1003C0001092AF001092AE008091BE009091BF00DD
:1003D000A091C000B091C1008093AA009093AB009F
:1003E000A093AC00B093AD0084DF8091BE009091EB
:1003F000BF00A091C000B091C1008C509E4FAF4F84
:10040000BF4F8093B2009093B300A093B400B09319
:10041000B50085DF5FC0C11105C01092C30073DF56
:1004200085DF58C0C13031F481E08093C30054DFD0
:100430007DDF50C0C23009F04DC083E08093C3001F
:100440001092AF001092AE0047DF8091BE009091F5
:10045000BF00A091C000B091C1008C509E4FAF4F23
:10046000BF4F8093B2009093B300A093B400B093B9
:10047000B50030C0C11106C081E08093C3002CDFFD
:1004800055DF28C0C13031F481E08093C30024DF00
:100490004DDF20C0C230F1F41092AF001092AE00D8
:1004A0008091BE009091BF00A091C000B091C100AA
:1004B0008C509E4FAF4FBF4F8093B2009093B300CC
:1004C000A093B400B093B50005C0C13019F41092E8
:1004D000C3002CDFC33031F484E08093C30013DF0A
:1004E0001EDF05C0C43019F485E08093C300CF91AE
:1004F000089580E021DF089581E01EDF089582E005
:100500001BDF089583E018DF089584E015DF089568
:10051000AEDDC7DD78944091BA005091BB00609188
:10052000BC007091BD008091BE009091BF00A09171
:10053000C000B091C100481759076A077B07A0F4B3
:100540000196A11DB11D8093BA009093BB00A093AA
:10055000BC00B093BD0080E990E0D2DD88E790E078
:10056000CFDD80E690E0CCDD8091C300823041F5A4
:100570004091B6005091B7006091B8007091B900F9
:100580008091BE009091BF00A091C000B091C100C9
:10059000481759076A077B0798F488519C4FAF4F5B
:1005A000BF4F8093B6009093B700A093B800B0936C
:1005B000B9008091B000882311F0B8DE01C0AFDE31
:1005C0008091C300833009F0A6CF4091B2005091D2
:1005D000B3006091B4007091B5008091BE0090911D
:1005E000BF00A091C000B091C100481759076A0729
:1005F0007B0708F090CF8C509E4FAF4FBF4F80933A
:10060000B2009093B300A093B400B093B500809172
:10061000AE008F5F8093AE009091A800891303C055
:1006200080E08ADE78CF8091B000882311F07EDEF2
:1006300001C075DE8091AF008F5F8093AF00909115
:10064000A900891368CF1092AF008091B10081306A
:0E06500011F44FDE60CF40DE5ECFF894FFCF96
:10065E00063000020000000000000000003600829C
:10066E0002850200000000000036000200000000BB
:10067E0000B80B00007C027F023600000000000074
:10068E000136000000000000000000000079023674
:0A069E00003600000000000078069E
:00000001FF
