:1000000014C02CC02BC02AC029C028C027C026C0BD
:1000100025C024C023C022C021C048C01FC01EC0AC
:100020001DC01CC01BC01AC019C011241FBECFEDBB
:10003000CDBF10E0A0E6B0E0E2EEF2E002C0059035
:100040000D92AE38B107D9F720E0AEE8B0E001C0BC
:100050001D92AB39B207E1F7FAD041C1D1CF9091EF
:100060009A0081E0892780939A00882321F082B347
:10007000816082BB089582B38E7F82BB089581E048
:1000800081BB82BB80939A0017BA92E098BB88BB71
:1000900082B3806482BB089582E080BF83E083BF27
:1000A0008EE386BF81E089BF88BF08951F920F92BB
:1000B0000FB60F9211248F939F93AF93BF938091AC
:1000C000960090919700A0919800B09199000196A8
:1000D000A11DB11D8093960090939700A093980066
:1000E000B0939900BF91AF919F918F910F900FBEE8
:1000F0000F901F901895CF92DF92EF92FF92CF93BF
:10010000DF93EC0181E090E0088002C0880F991F26
:100110000A94E2F7E981FA81208130E0282339232B
:100120008885882381F040919600509197006091D6
:10013000980070919900CC80DD80EE80FF804C1992
:100140005D096E097F09823049F128F4882359F04E
:100150008130D9F075C0843009F45BC088F18530F6
:1001600009F468C06DC0232B09F06AC081E088875C
:100170008091960090919700A0919800B09199007D
:100180008C839D83AE83BF835BC04A30510561057C
:10019000710508F455C082E0888752C0232B09F00E
:1001A00018864E3651056105710508F449C083E093
:1001B00088878B81811144C0ED85FE85099540C0FB
:1001C000232BA9F08B81823019F4ED85FE850995EA
:1001D00085E088878091960090919700A091980083
:1001E000B09199008C839D83AE83BF8329C08B819E
:1001F000823031F589859A85AB85BC8548175907CA
:100200006A077B07E8F084E08887ED85FE8509951D
:1002100017C0232BA9F085E08887809196009091E4
:100220009700A0919800B09199008C839D83AE8334
:10023000BF8306C04A3051056105710508F0188674
:10024000DF91CF91FF90EF90DF90CF90089517DF6F
:1002500023DF789440919200509193006091940034
:10026000709195008091960090919700A0919800D0
:10027000B0919900481759076A077B0770F4AC01E1
:10028000BD0148515C4F6F4F7F4F40939200509398
:100290009300609394007093950040918E0050916C
:1002A0008F006091900070919100481759076A077C
:1002B0007B0780F60196A11DB11D80938E0090935F
:1002C0008F00A0939000B09391008EE790E013DF31
:1002D0008FE690E010DF80E690E00DDFBBCFF89472
:0202E000FFCF4E
:1002E200063000020000000000B80B00002F0000E2
:1002F2003600020000000000B80B00002F0001369B
:0E03020000000000000000000000002F0000BE
:00000001FF
