S0220000736163756D695F6D656C616E6A6F725F415474696E79323331332E7372656348
S113000014C021C020C01FC01EC01DC01CC01BC006
S11300101AC019C018C017C016C05AC014C013C0E3
S113002012C011C010C00FC00EC011241FBECFEDEE
S1130030CDBF20E0A0E6B0E001C01D92A936B20712
S1130040E1F712D06AC0DCCF81E081BB82BB809330
S11300506800089582E080BF83E083BF8EE386BF9B
S113006081E089BF88BF0895EFDFF4DF7894409181
S11300706000509161006091620070916300809112
S1130080640090916500A0916600B09167004817E4
S113009059076A077B0758F788519C4FAF4FBF4FEA
S11300A08093600090936100A0936200B09363001A
S11300B09091680081E0892780936800882321F06B
S11300C082B3816082BBD3CF82B38E7F82BBCFCF1A
S11300D01F920F920FB60F9211248F939F93AF9399
S11300E0BF938091640090916500A0916600B091E7
S11300F067000196A11DB11D809364009093650073
S1130100A0936600B0936700BF91AF919F918F91C8
S11101100F900FBE0F901F901895F894FFCF1C
S9030000FC
