:100000001BC033C032C031C030C02FC02EC02DC085
:100010002CC02BC02AC029C028C04DC026C025C076
:1000200024C023C022C021C020C0A3C0B4C0BDC012
:10003000D0C000C11BC123C111241FBECFEDCDBF55
:1000400010E0A0E6B0E0E0E1F7E002C005900D921C
:10005000A83AB107D9F720E0A8EAB0E001C01D92A4
:10006000A43CB207E1F770D251C3CACF089581E032
:1000700081BB82BB8093C20088E087BB87B384606A
:1000800087BB88B3826088BB88B3816088BB82B33A
:10009000806482BB81B3806281BB87B3806187BB90
:1000A000089582E080BF83E083BF8EE386BF81E056
:1000B00089BF88BF08951F920F920FB60F92112427
:1000C0008F939F93AF93BF938091BE009091BF0099
:1000D000A091C000B091C1000196A11DB11D8093F7
:1000E000BE009093BF00A093C000B093C100BF9129
:1000F000AF919F918F910F900FBE0F901F90189509
:10010000CF92DF92EF92FF92CF93DF93DC0181E0F9
:1001100090E00C9002C0880F991F0A94E2F71196A4
:10012000ED91FC911297208130E082239323189661
:10013000EC911897EE2391F0C090BE00D090BF00D4
:10014000E090C000F090C10014964D915D916D91CA
:100150007C911797C41AD50AE60AF70A4E2F50E089
:100160004730510508F0B1C0ED01FA01EB5EFF4FD9
:100170000994892B09F0A9C081E088878091BE008D
:100180009091BF00A091C000B091C1008C839D836D
:10019000AE83BF839AC08FE0C816D104E104F10496
:1001A00008F493C082E0888790C0892B11F01886EC
:1001B0008CC083E7C816D104E104F10408F485C0BB
:1001C00083E088878B81811180C0ED85FE8509954C
:1001D0007CC0892BC9F085E0888783E08B8B8C817C
:1001E0009D81AE81BF818C8B9D8BAE8BBF8B8091AF
:1001F000BE009091BF00A091C000B091C1008C835F
:100200009D83AE83BF8361C08B81823009F05DC066
:1002100089859A85AB85BC85C816D906EA06FB0692
:1002200008F453C084E0888783E08B8BEF85F889DE
:1002300009954BC0892B09F448C085E0888784E084
:100240008B8B8C819D81AE81BF818C8B9D8BAE8B86
:10025000BF8B8091BE009091BF00A091C000B09173
:10026000C1008C839D83AE83BF832FC08FE0C816EF
:10027000D104E104F10448F186E0888726C0892B87
:1002800059F48C899D89AE89BF898C839D83AE8307
:10029000BF838B89888719C083E7C816D104E1041E
:1002A000F10498F018868B81823031F48B89833089
:1002B00019F4ED85FE8509958B81823031F48B89A7
:1002C000843019F4E989FA890995DF91CF91FF907B
:1002D000EF90DF90CF90089581E08093A90082B3E2
:1002E000806282BB88B38F7E88BB88B3846088BB02
:1002F000089582E08093A90088B3806188BB82B3AF
:100300008F7D82BB08951092A90082B38F7D82BB3E
:1003100088B38F7E88BB88B38B7F88BB089588B3F2
:10032000886088BB81E08093A800089588B3877FA8
:1003300088BB1092A8000895CF93C82F8091C30066
:10034000823009F470C028F4882351F0813079F0AC
:10035000DDC0833009F4AEC0853009F4D2C0D6C008
:10036000C111D4C081E08093C300B6DFCFC0C111FA
:1003700005C01092C300C7DFD9DFC8C0C130D1F4B7
:1003800082E08093C300B5DF8091BE009091BF00F2
:10039000A091C000B091C10084549D4FAF4FBF4F9A
:1003A0008093B6009093B700A093B800B093B900C3
:1003B000B6DFACC0C23009F0A9C083E08093C300AF
:1003C00098DF8091BE009091BF00A091C000B091D5
:1003D000C100AC01BD01425A5E4F6F4F7F4F409349
:1003E000B2005093B3006093B4007093B500AC01B9
:1003F000BD014854544F6F4F7F4F4093AE00509310
:10040000AF006093B0007093B100805A9541AF4F38
:10041000BF4F8093AA009093AB00A093AC00B09321
:10042000AD007DDF73C0C11105C01092C3006BDF4A
:100430007DDF6CC0C13031F481E08093C3004CDFBC
:1004400075DF64C0C23009F061C083E08093C300EF
:1004500043DF8091BE009091BF00A091C000B09199
:10046000C100AC01BD01425A5E4F6F4F7F4F4093B8
:10047000B2005093B3006093B4007093B500AC0128
:10048000BD014854544F6F4F7F4F4093AE0050937F
:10049000AF006093B0007093B100805A9541AF4FA8
:1004A000BF4F8093AA009093AB00A093AC00B09391
:1004B000AD002CC0C11106C081E08093C3000CDFE9
:1004C00035DF24C0C13031F481E08093C30004DF04
:1004D0002DDF1CC0C230D1F48091BE009091BF00CE
:1004E000A091C000B091C100805A9541AF4FBF4F5D
:1004F0008093AA009093AB00A093AC00B093AD00A2
:1005000005C0C13019F41092C30010DFC33031F4BC
:1005100084E08093C300F7DE02DF05C0C43019F425
:1005200085E08093C300CF91089580E005DF0895B2
:1005300081E002DF089582E0FFDE089583E0FCDEC3
:10054000089584E0F9DE089592DDABDD7894409162
:10055000BA005091BB006091BC007091BD008091C9
:10056000BE009091BF00A091C000B091C10048179B
:1005700059076A077B07A0F40196A11DB11D80935E
:10058000BA009093BB00A093BC00B093BD0080E97B
:1005900090E0B6DD88E790E0B3DD80E690E0B0DD86
:1005A0008091C300823041F54091B6005091B70070
:1005B0006091B8007091B9008091BE009091BF0029
:1005C000A091C000B091C100481759076A077B0786
:1005D00098F484549D4FAF4FBF4F8093B6009093D3
:1005E000B700A093B800B093B9008091A800882309
:1005F00011F09CDE01C093DE8091C300833009F0CE
:10060000A6CF4091AA005091AB006091AC007091D0
:10061000AD008091BE009091BF00A091C000B0914C
:10062000C100481759076A077B0718F480E084DE89
:100630008ECF0091B2001091B3002091B4003091A0
:10064000B500081719072A073B0700F58C019D0123
:10065000041B150B260B370BB901A8014D32514075
:100660006105710598F0825A9E4FAF4FBF4F80933E
:10067000B2009093B300A093B400B093B500809102
:10068000A800882311F052DE01C049DE4091AE007F
:100690005091AF006091B0007091B1008091BE00A8
:1006A0009091BF00A091C000B091C10048175907B8
:1006B0006A077B0708F04BCF4091AA005091AB002E
:1006C0006091AC007091AD008C019D01041B150B75
:1006D000260B370BB901A801453C5940610571054E
:1006E00008F435CF8854944FAF4FBF4F8093AE007E
:1006F0009093AF00A093B000B093B1008091A90097
:10070000813011F4F6DD23CFE7DD21CFF894FFCF60
:100710000630000200000000000000000036009ECD
:1007200002A10200000000000036000200000000EC
:1007300000B80B000098029B023600000000000089
:1007400001360000000000000000000000950236A5
:0807500000360000000000006B
:00000001FF
